{
  "contractName": "DocumentIntegrity",
  "abi": [
    {
      "anonymous": false,
      "inputs": [
        {
          "indexed": true,
          "internalType": "uint48",
          "name": "id",
          "type": "uint48"
        }
      ],
      "name": "AddCertificationEvent",
      "type": "event"
    },
    {
      "anonymous": false,
      "inputs": [
        {
          "indexed": true,
          "internalType": "uint48[]",
          "name": "ids",
          "type": "uint48[]"
        }
      ],
      "name": "AddCertificationsEvent",
      "type": "event"
    },
    {
      "inputs": [
        {
          "internalType": "uint48",
          "name": "id",
          "type": "uint48"
        },
        {
          "internalType": "string",
          "name": "creatorSignature",
          "type": "string"
        }
      ],
      "name": "addCertification",
      "outputs": [],
      "stateMutability": "nonpayable",
      "type": "function"
    },
    {
      "inputs": [
        {
          "internalType": "uint48[]",
          "name": "idArr",
          "type": "uint48[]"
        },
        {
          "internalType": "string[]",
          "name": "creatorSignatures",
          "type": "string[]"
        }
      ],
      "name": "addCertifications",
      "outputs": [],
      "stateMutability": "nonpayable",
      "type": "function"
    },
    {
      "inputs": [
        {
          "internalType": "uint48",
          "name": "id",
          "type": "uint48"
        }
      ],
      "name": "getCertification",
      "outputs": [
        {
          "internalType": "string",
          "name": "",
          "type": "string"
        }
      ],
      "stateMutability": "view",
      "type": "function",
      "constant": true
    }
  ],
  "bytecode": "0x608060405234801561001057600080fd5b50610c8d806100206000396000f3fe608060405234801561001057600080fd5b50600436106100415760003560e01c806362aa65f214610046578063a64dba7e14610062578063ebd2caa914610092575b600080fd5b610060600480360381019061005b9190610624565b6100ae565b005b61007c60048036038101906100779190610680565b61018f565b6040516100899190610735565b60405180910390f35b6100ac60048036038101906100a79190610900565b610249565b005b60008060008465ffffffffffff1665ffffffffffff16815260200190815260200160002080546100dd906109a7565b90501461011f576040517f08c379a000000000000000000000000000000000000000000000000000000000815260040161011690610a4b565b60405180910390fd5b806000808465ffffffffffff1665ffffffffffff16815260200190815260200160002090805190602001906101559291906103e9565b508165ffffffffffff167fe0bcc6fe33dea3bf8d264fe46ebd27aff2929e6dcf00ca367a64e7c67f043d6d60405160405180910390a25050565b606060008060008465ffffffffffff1665ffffffffffff16815260200190815260200160002080546101c0906109a7565b80601f01602080910402602001604051908101604052809291908181526020018280546101ec906109a7565b80156102395780601f1061020e57610100808354040283529160200191610239565b820191906000526020600020905b81548152906001019060200180831161021c57829003601f168201915b5050505050905080915050919050565b805182511461028d576040517f08c379a000000000000000000000000000000000000000000000000000000000815260040161028490610ab7565b60405180910390fd5b60005b82518110156103a25760008060008584815181106102b1576102b0610ad7565b5b602002602001015165ffffffffffff1665ffffffffffff16815260200190815260200160002080546102e2906109a7565b905014610324576040517f08c379a000000000000000000000000000000000000000000000000000000000815260040161031b90610a4b565b60405180910390fd5b81818151811061033757610336610ad7565b5b602002602001015160008085848151811061035557610354610ad7565b5b602002602001015165ffffffffffff1665ffffffffffff168152602001908152602001600020908051906020019061038e9291906103e9565b50808061039a90610b3f565b915050610290565b50816040516103b19190610c40565b60405180910390207fe17cb3bb983e1b9598a0d6147c9adf18353c0772ec0205dea514f6c3666f2b1160405160405180910390a25050565b8280546103f5906109a7565b90600052602060002090601f016020900481019282610417576000855561045e565b82601f1061043057805160ff191683800117855561045e565b8280016001018555821561045e579182015b8281111561045d578251825591602001919060010190610442565b5b50905061046b919061046f565b5090565b5b80821115610488576000816000905550600101610470565b5090565b6000604051905090565b600080fd5b600080fd5b600065ffffffffffff82169050919050565b6104bb816104a0565b81146104c657600080fd5b50565b6000813590506104d8816104b2565b92915050565b600080fd5b600080fd5b6000601f19601f8301169050919050565b7f4e487b7100000000000000000000000000000000000000000000000000000000600052604160045260246000fd5b610531826104e8565b810181811067ffffffffffffffff821117156105505761054f6104f9565b5b80604052505050565b600061056361048c565b905061056f8282610528565b919050565b600067ffffffffffffffff82111561058f5761058e6104f9565b5b610598826104e8565b9050602081019050919050565b82818337600083830152505050565b60006105c76105c284610574565b610559565b9050828152602081018484840111156105e3576105e26104e3565b5b6105ee8482856105a5565b509392505050565b600082601f83011261060b5761060a6104de565b5b813561061b8482602086016105b4565b91505092915050565b6000806040838503121561063b5761063a610496565b5b6000610649858286016104c9565b925050602083013567ffffffffffffffff81111561066a5761066961049b565b5b610676858286016105f6565b9150509250929050565b60006020828403121561069657610695610496565b5b60006106a4848285016104c9565b91505092915050565b600081519050919050565b600082825260208201905092915050565b60005b838110156106e75780820151818401526020810190506106cc565b838111156106f6576000848401525b50505050565b6000610707826106ad565b61071181856106b8565b93506107218185602086016106c9565b61072a816104e8565b840191505092915050565b6000602082019050818103600083015261074f81846106fc565b905092915050565b600067ffffffffffffffff821115610772576107716104f9565b5b602082029050602081019050919050565b600080fd5b600061079b61079684610757565b610559565b905080838252602082019050602084028301858111156107be576107bd610783565b5b835b818110156107e757806107d388826104c9565b8452602084019350506020810190506107c0565b5050509392505050565b600082601f830112610806576108056104de565b5b8135610816848260208601610788565b91505092915050565b600067ffffffffffffffff82111561083a576108396104f9565b5b602082029050602081019050919050565b600061085e6108598461081f565b610559565b9050808382526020820190506020840283018581111561088157610880610783565b5b835b818110156108c857803567ffffffffffffffff8111156108a6576108a56104de565b5b8086016108b389826105f6565b85526020850194505050602081019050610883565b5050509392505050565b600082601f8301126108e7576108e66104de565b5b81356108f784826020860161084b565b91505092915050565b6000806040838503121561091757610916610496565b5b600083013567ffffffffffffffff8111156109355761093461049b565b5b610941858286016107f1565b925050602083013567ffffffffffffffff8111156109625761096161049b565b5b61096e858286016108d2565b9150509250929050565b7f4e487b7100000000000000000000000000000000000000000000000000000000600052602260045260246000fd5b600060028204905060018216806109bf57607f821691505b602082108114156109d3576109d2610978565b5b50919050565b7f416c726561647920636f6e7461696e732074686973206365727469666963617460008201527f696f6e0000000000000000000000000000000000000000000000000000000000602082015250565b6000610a356023836106b8565b9150610a40826109d9565b604082019050919050565b60006020820190508181036000830152610a6481610a28565b9050919050565b7f4172726179206c656e67746873206d69736d6174636800000000000000000000600082015250565b6000610aa16016836106b8565b9150610aac82610a6b565b602082019050919050565b60006020820190508181036000830152610ad081610a94565b9050919050565b7f4e487b7100000000000000000000000000000000000000000000000000000000600052603260045260246000fd5b7f4e487b7100000000000000000000000000000000000000000000000000000000600052601160045260246000fd5b6000819050919050565b6000610b4a82610b35565b91507fffffffffffffffffffffffffffffffffffffffffffffffffffffffffffffffff821415610b7d57610b7c610b06565b5b600182019050919050565b600081519050919050565b600081905092915050565b6000819050602082019050919050565b610bb7816104a0565b82525050565b6000610bc98383610bae565b60208301905092915050565b6000602082019050919050565b6000610bed82610b88565b610bf78185610b93565b9350610c0283610b9e565b8060005b83811015610c33578151610c1a8882610bbd565b9750610c2583610bd5565b925050600181019050610c06565b5085935050505092915050565b6000610c4c8284610be2565b91508190509291505056fea2646970667358221220feec49d536d77e9a0c19ac7599a7d5acc7cb33614be78b1702c65d2543f4da9464736f6c634300080c0033",
  "immutableReferences": {},
  "source": "// SPDX-License-Identifier: MIT\npragma solidity ^0.8.12;\n\ncontract DocumentIntegrity {\n\n    event AddCertificationEvent(uint48 indexed id);\n    event AddCertificationsEvent(uint48[] indexed ids);\n\n    mapping(uint48 => string) private certifications;\n\n    function addCertification(uint48 id, string memory creatorSignature) public {\n        require(bytes(certifications[id]).length == 0, \"Already contains this certification\");\n\n        certifications[id] = creatorSignature;\n        emit AddCertificationEvent(id);\n    }\n\n    function addCertifications(uint48[] memory idArr, string[] memory creatorSignatures) public {\n        require(idArr.length == creatorSignatures.length, \"Array lengths mismatch\");\n\n        for (uint256 i = 0; i < idArr.length; i++) {\n            require(bytes(certifications[idArr[i]]).length == 0, \"Already contains this certification\");\n\n            certifications[idArr[i]] = creatorSignatures[i];\n        }\n        emit AddCertificationsEvent(idArr);\n    }\n\n    function getCertification(uint48 id) public view returns (string memory) {\n        string memory hash = certifications[id];\n        return hash;\n    }\n}",
  "sourcePath": "/Users/kmmn/IdeaProjects/CSC8099/blockchain/contracts/DocumentIntegrity.sol",
  "compiler": {
    "name": "solc",
    "version": "0.8.12+commit.f00d7308.Emscripten.clang"
  },
  "schemaVersion": "3.4.14",
  "updatedAt": "2023-08-16T20:12:48.446Z",
  "networkType": "ethereum",
  "devdoc": {
    "kind": "dev",
    "methods": {},
    "version": 1
  },
  "userdoc": {
    "kind": "user",
    "methods": {},
    "version": 1
  }
}